{"abi":[{"type":"constructor","inputs":[{"name":"_zkPassportMerkleRoot","type":"bytes32","internalType":"bytes32"}],"stateMutability":"nonpayable"},{"type":"function","name":"acceptMarriage","inputs":[{"name":"proposalId","type":"bytes32","internalType":"bytes32"},{"name":"merkleProof","type":"bytes32[]","internalType":"bytes32[]"}],"outputs":[],"stateMutability":"nonpayable"},{"type":"function","name":"getMarriageStatus","inputs":[{"name":"user","type":"address","internalType":"address"}],"outputs":[{"name":"isMarried","type":"bool","internalType":"bool"},{"name":"marriageId","type":"bytes32","internalType":"bytes32"}],"stateMutability":"view"},{"type":"function","name":"marriages","inputs":[{"name":"","type":"bytes32","internalType":"bytes32"}],"outputs":[{"name":"spouse1Hash","type":"bytes32","internalType":"bytes32"},{"name":"spouse2Hash","type":"bytes32","internalType":"bytes32"},{"name":"marriageDate","type":"uint256","internalType":"uint256"},{"name":"isActive","type":"bool","internalType":"bool"},{"name":"merkleRoot","type":"bytes32","internalType":"bytes32"}],"stateMutability":"view"},{"type":"function","name":"owner","inputs":[],"outputs":[{"name":"","type":"address","internalType":"address"}],"stateMutability":"view"},{"type":"function","name":"personToMarriage","inputs":[{"name":"","type":"bytes32","internalType":"bytes32"}],"outputs":[{"name":"","type":"bytes32","internalType":"bytes32"}],"stateMutability":"view"},{"type":"function","name":"proposals","inputs":[{"name":"","type":"bytes32","internalType":"bytes32"}],"outputs":[{"name":"proposer","type":"bytes32","internalType":"bytes32"},{"name":"proposee","type":"bytes32","internalType":"bytes32"},{"name":"timestamp","type":"uint256","internalType":"uint256"},{"name":"nonce","type":"uint256","internalType":"uint256"},{"name":"isAccepted","type":"bool","internalType":"bool"},{"name":"isExpired","type":"bool","internalType":"bool"}],"stateMutability":"view"},{"type":"function","name":"proposeMarriage","inputs":[{"name":"proposalId","type":"bytes32","internalType":"bytes32"},{"name":"proposee","type":"bytes32","internalType":"bytes32"},{"name":"nonce","type":"uint256","internalType":"uint256"},{"name":"merkleProof","type":"bytes32[]","internalType":"bytes32[]"}],"outputs":[],"stateMutability":"nonpayable"},{"type":"function","name":"renounceOwnership","inputs":[],"outputs":[],"stateMutability":"nonpayable"},{"type":"function","name":"requestDivorce","inputs":[{"name":"marriageId","type":"bytes32","internalType":"bytes32"},{"name":"merkleProof","type":"bytes32[]","internalType":"bytes32[]"}],"outputs":[],"stateMutability":"nonpayable"},{"type":"function","name":"transferOwnership","inputs":[{"name":"newOwner","type":"address","internalType":"address"}],"outputs":[],"stateMutability":"nonpayable"},{"type":"function","name":"updateZKPassportMerkleRoot","inputs":[{"name":"newRoot","type":"bytes32","internalType":"bytes32"}],"outputs":[],"stateMutability":"nonpayable"},{"type":"function","name":"validPassportHashes","inputs":[{"name":"","type":"bytes32","internalType":"bytes32"}],"outputs":[{"name":"","type":"bool","internalType":"bool"}],"stateMutability":"view"},{"type":"function","name":"zkPassportMerkleRoot","inputs":[],"outputs":[{"name":"","type":"bytes32","internalType":"bytes32"}],"stateMutability":"view"},{"type":"event","name":"DivorceRequested","inputs":[{"name":"marriageId","type":"bytes32","indexed":true,"internalType":"bytes32"},{"name":"requester","type":"bytes32","indexed":false,"internalType":"bytes32"}],"anonymous":false},{"type":"event","name":"MarriageCreated","inputs":[{"name":"marriageId","type":"bytes32","indexed":true,"internalType":"bytes32"},{"name":"spouse1","type":"bytes32","indexed":false,"internalType":"bytes32"},{"name":"spouse2","type":"bytes32","indexed":false,"internalType":"bytes32"}],"anonymous":false},{"type":"event","name":"MarriageDissolved","inputs":[{"name":"marriageId","type":"bytes32","indexed":true,"internalType":"bytes32"}],"anonymous":false},{"type":"event","name":"MarriageProposed","inputs":[{"name":"proposalId","type":"bytes32","indexed":true,"internalType":"bytes32"},{"name":"proposer","type":"bytes32","indexed":false,"internalType":"bytes32"},{"name":"proposee","type":"bytes32","indexed":false,"internalType":"bytes32"}],"anonymous":false},{"type":"event","name":"OwnershipTransferred","inputs":[{"name":"previousOwner","type":"address","indexed":true,"internalType":"address"},{"name":"newOwner","type":"address","indexed":true,"internalType":"address"}],"anonymous":false},{"type":"error","name":"OwnableInvalidOwner","inputs":[{"name":"owner","type":"address","internalType":"address"}]},{"type":"error","name":"OwnableUnauthorizedAccount","inputs":[{"name":"account","type":"address","internalType":"address"}]},{"type":"error","name":"ReentrancyGuardReentrantCall","inputs":[]}],"bytecode":{"object":"0x60803460af57601f610bf338819003918201601f19168301916001600160401b0383118484101760b35780849260209460405283398101031260af575160015f553315609c5760018054336001600160a01b0319821681179092556040519291906001600160a01b03167f8be0079c531659141344cd1fd0a4f28419497f9722a3daafe3b4186f6b6457e05f80a3600655610b2b90816100c88239f35b631e4fbdf760e01b5f525f60045260245ffd5b5f80fd5b634e487b7160e01b5f52604160045260245ffdfe6080806040526004361015610012575f80fd5b5f3560e01c908163117f7eda14610736575080631970a9c7146105ea57806332ed5b121461058257806337d4f74314610558578063715018a6146104fd5780637ae452d8146104ce578063826f940e146104735780638424337b146104525780638da5cb5b1461042a578063c10e7905146103c5578063cba4449a14610156578063e8eec8ac146101395763f2fde38b146100ab575f80fd5b34610135576020366003190112610135576004356001600160a01b03811690819003610135576100d9610ace565b801561012257600180546001600160a01b0319811683179091556001600160a01b03167f8be0079c531659141344cd1fd0a4f28419497f9722a3daafe3b4186f6b6457e05f80a3005b631e4fbdf760e01b5f525f60045260245ffd5b5f80fd5b34610135575f366003190112610135576020600654604051908152f35b3461013557610164366108e7565b909160025f54146103b65760025f555f52600360205260405f20906001820180549133830361037e576004840194855460ff81166103465760081c60ff1661030e576101b9916101b491336109c7565b61091b565b335f5260046020526101cf60405f205415610967565b8254926040516020810190858252846040820152426060820152606081526101f86080826109a5565b5190209460405160208101908682528560408201526040815261021c6060826109a5565b519020946040519060a082019682881067ffffffffffffffff8911176102fa576102bb6040976004937f206b816b08d19653b70a91061776f38af32bdfd06a347bccac75939dbccbba3b9a8a52855260208501908152888501428152606086019160018352608087019485528c5f5260026020528a5f2096518755516001870155516002860155511515600385019060ff801983541691151516179055565b5191015581545f52600460205285845f205582545f52600460205285845f2055600160ff1982541617905554905482519182526020820152a260015f55005b634e487b7160e01b5f52604160045260245ffd5b60405162461bcd60e51b815260206004820152601060248201526f141c9bdc1bdcd85b08195e1c1a5c995960821b6044820152606490fd5b60405162461bcd60e51b815260206004820152601060248201526f105b1c9958591e481858d8d95c1d195960821b6044820152606490fd5b60405162461bcd60e51b815260206004820152601060248201526f4e6f74207468652070726f706f73656560801b6044820152606490fd5b633ee5aeb560e01b5f5260045ffd5b34610135576020366003190112610135576004356001600160a01b03811690819003610135575f5260046020526040805f20548015159081610410575b825191151582526020820152f35b8091505f52600260205260ff6003835f2001541690610402565b34610135575f366003190112610135576001546040516001600160a01b039091168152602090f35b346101355760203660031901126101355761046b610ace565b600435600655005b34610135576020366003190112610135576004355f52600260205260a060405f208054906001810154906002810154600460ff6003840154169201549260405194855260208501526040840152151560608301526080820152f35b34610135576020366003190112610135576004355f526005602052602060ff60405f2054166040519015158152f35b34610135575f36600319011261013557610515610ace565b600180546001600160a01b031981169091555f906001600160a01b03167f8be0079c531659141344cd1fd0a4f28419497f9722a3daafe3b4186f6b6457e08280a3005b34610135576020366003190112610135576004355f526004602052602060405f2054604051908152f35b34610135576020366003190112610135576004355f52600360205260c060405f2060ff815491600181015490600281015460046003830154920154926040519586526020860152604085015260608401528181161515608084015260081c16151560a0820152f35b34610135576105f8366108e7565b825f52600260205260405f209060038201805460ff8116156106fb5783549233841480156106ee575b156106a9576101b461063691600197336109c7565b60ff191690555f5260046020525f604081205501545f5260046020525f6040812055807f9003fe85c349c640aec29df088cb84a3b3833422d99a90577d739bdd6c23889f6020604051338152a27fa2d0c615bf9ec2291b525816f43ed4fcee81518e3ae812e0bc6172f1233690905f80a2005b60405162461bcd60e51b815260206004820152601d60248201527f4e6f7420612073706f75736520696e2074686973206d617272696167650000006044820152606490fd5b5033600186015414610621565b60405162461bcd60e51b81526020600482015260136024820152724d61727269616765206e6f742061637469766560681b6044820152606490fd5b3461013557608036600319011261013557600435906024359060643567ffffffffffffffff81116101355761076f9036906004016108b6565b91845f52600360205260405f20546108745750610790916101b491336109c7565b335f5260046020526107a660405f205415610967565b6040519060c082019082821067ffffffffffffffff8311176102fa577f7159f9aff7dd7282c3ade2d27140e81c161cf2ac6cee52a7160371b3c58dfd309260409283523381526020810182815261085060048584019342855260608101604435815260808201955f875260a08301955f87528b5f526003602052895f20935184555160018401555160028301555160038201550192511515839060ff801983541691151516179055565b51151561ff0082549160081b169061ff0019161790558151903382526020820152a2005b62461bcd60e51b815260206004820152601760248201527f50726f706f73616c20616c7265616479206578697374730000000000000000006044820152606490fd5b9181601f840112156101355782359167ffffffffffffffff8311610135576020808501948460051b01011161013557565b90604060031983011261013557600435916024359067ffffffffffffffff821161013557610917916004016108b6565b9091565b1561092257565b60405162461bcd60e51b815260206004820152601860248201527f496e76616c6964207a6b50617373706f72742070726f6f6600000000000000006044820152606490fd5b1561096e57565b60405162461bcd60e51b815260206004820152600f60248201526e105b1c9958591e481b585c9c9a5959608a1b6044820152606490fd5b90601f8019910116810190811067ffffffffffffffff8211176102fa57604052565b9290919260405160208101916bffffffffffffffffffffffff199060601b168252601481526109f76034826109a5565b5190206006549267ffffffffffffffff85116102fa578460051b60405195610a2260208301886109a5565b8652602086019082019136831161013557905b828210610abe57505050905f915b8451831015610ab657600583901b85016020015160019190808211610a8d576040519060208201928352604082015260408152610a816060826109a5565b519020925b0191610a43565b906040519060208201928352604082015260408152610aad6060826109a5565b51902092610a86565b915092501490565b8135815260209182019101610a35565b6001546001600160a01b03163303610ae257565b63118cdaa760e01b5f523360045260245ffdfea2646970667358221220a8f9f45de982f4f6fbaccf9d3c62c2d3802079727b63be97afba6931cc48fb9564736f6c634300081c0033","linkReferences":{}},"methodIdentifiers":{"acceptMarriage(bytes32,bytes32[])":"cba4449a","getMarriageStatus(address)":"c10e7905","marriages(bytes32)":"826f940e","owner()":"8da5cb5b","personToMarriage(bytes32)":"37d4f743","proposals(bytes32)":"32ed5b12","proposeMarriage(bytes32,bytes32,uint256,bytes32[])":"117f7eda","renounceOwnership()":"715018a6","requestDivorce(bytes32,bytes32[])":"1970a9c7","transferOwnership(address)":"f2fde38b","updateZKPassportMerkleRoot(bytes32)":"8424337b","validPassportHashes(bytes32)":"7ae452d8","zkPassportMerkleRoot()":"e8eec8ac"},"id":22}