{"abi":[{"type":"constructor","inputs":[{"name":"_zkPassportMerkleRoot","type":"bytes32","internalType":"bytes32"}],"stateMutability":"nonpayable"},{"type":"function","name":"acceptMarriage","inputs":[{"name":"proposalId","type":"bytes32","internalType":"bytes32"},{"name":"merkleProof","type":"bytes32[]","internalType":"bytes32[]"}],"outputs":[],"stateMutability":"nonpayable"},{"type":"function","name":"getMarriageStatus","inputs":[{"name":"user","type":"address","internalType":"address"}],"outputs":[{"name":"isMarried","type":"bool","internalType":"bool"},{"name":"marriageId","type":"bytes32","internalType":"bytes32"}],"stateMutability":"view"},{"type":"function","name":"marriages","inputs":[{"name":"","type":"bytes32","internalType":"bytes32"}],"outputs":[{"name":"spouse1Hash","type":"bytes32","internalType":"bytes32"},{"name":"spouse2Hash","type":"bytes32","internalType":"bytes32"},{"name":"marriageDate","type":"uint256","internalType":"uint256"},{"name":"isActive","type":"bool","internalType":"bool"},{"name":"merkleRoot","type":"bytes32","internalType":"bytes32"}],"stateMutability":"view"},{"type":"function","name":"owner","inputs":[],"outputs":[{"name":"","type":"address","internalType":"address"}],"stateMutability":"view"},{"type":"function","name":"personToMarriage","inputs":[{"name":"","type":"bytes32","internalType":"bytes32"}],"outputs":[{"name":"","type":"bytes32","internalType":"bytes32"}],"stateMutability":"view"},{"type":"function","name":"proposals","inputs":[{"name":"","type":"bytes32","internalType":"bytes32"}],"outputs":[{"name":"proposer","type":"bytes32","internalType":"bytes32"},{"name":"proposee","type":"bytes32","internalType":"bytes32"},{"name":"timestamp","type":"uint256","internalType":"uint256"},{"name":"nonce","type":"uint256","internalType":"uint256"},{"name":"isAccepted","type":"bool","internalType":"bool"},{"name":"isExpired","type":"bool","internalType":"bool"}],"stateMutability":"view"},{"type":"function","name":"proposeMarriage","inputs":[{"name":"proposalId","type":"bytes32","internalType":"bytes32"},{"name":"proposee","type":"bytes32","internalType":"bytes32"},{"name":"nonce","type":"uint256","internalType":"uint256"},{"name":"merkleProof","type":"bytes32[]","internalType":"bytes32[]"}],"outputs":[],"stateMutability":"nonpayable"},{"type":"function","name":"renounceOwnership","inputs":[],"outputs":[],"stateMutability":"nonpayable"},{"type":"function","name":"requestDivorce","inputs":[{"name":"marriageId","type":"bytes32","internalType":"bytes32"},{"name":"merkleProof","type":"bytes32[]","internalType":"bytes32[]"}],"outputs":[],"stateMutability":"nonpayable"},{"type":"function","name":"transferOwnership","inputs":[{"name":"newOwner","type":"address","internalType":"address"}],"outputs":[],"stateMutability":"nonpayable"},{"type":"function","name":"updateZKPassportMerkleRoot","inputs":[{"name":"newRoot","type":"bytes32","internalType":"bytes32"}],"outputs":[],"stateMutability":"nonpayable"},{"type":"function","name":"validPassportHashes","inputs":[{"name":"","type":"bytes32","internalType":"bytes32"}],"outputs":[{"name":"","type":"bool","internalType":"bool"}],"stateMutability":"view"},{"type":"function","name":"zkPassportMerkleRoot","inputs":[],"outputs":[{"name":"","type":"bytes32","internalType":"bytes32"}],"stateMutability":"view"},{"type":"event","name":"DivorceRequested","inputs":[{"name":"marriageId","type":"bytes32","indexed":true,"internalType":"bytes32"},{"name":"requester","type":"bytes32","indexed":false,"internalType":"bytes32"}],"anonymous":false},{"type":"event","name":"MarriageCreated","inputs":[{"name":"marriageId","type":"bytes32","indexed":true,"internalType":"bytes32"},{"name":"spouse1","type":"bytes32","indexed":false,"internalType":"bytes32"},{"name":"spouse2","type":"bytes32","indexed":false,"internalType":"bytes32"}],"anonymous":false},{"type":"event","name":"MarriageDissolved","inputs":[{"name":"marriageId","type":"bytes32","indexed":true,"internalType":"bytes32"}],"anonymous":false},{"type":"event","name":"MarriageProposed","inputs":[{"name":"proposalId","type":"bytes32","indexed":true,"internalType":"bytes32"},{"name":"proposer","type":"bytes32","indexed":false,"internalType":"bytes32"},{"name":"proposee","type":"bytes32","indexed":false,"internalType":"bytes32"}],"anonymous":false},{"type":"event","name":"OwnershipTransferred","inputs":[{"name":"previousOwner","type":"address","indexed":true,"internalType":"address"},{"name":"newOwner","type":"address","indexed":true,"internalType":"address"}],"anonymous":false},{"type":"error","name":"OwnableInvalidOwner","inputs":[{"name":"owner","type":"address","internalType":"address"}]},{"type":"error","name":"OwnableUnauthorizedAccount","inputs":[{"name":"account","type":"address","internalType":"address"}]},{"type":"error","name":"ReentrancyGuardReentrantCall","inputs":[]}],"bytecode":{"object":"0x6080604052348015600e575f5ffd5b50604051610d8d380380610d8d833981016040819052602b9160b3565b60015f553380605357604051631e4fbdf760e01b81525f600482015260240160405180910390fd5b605a816062565b5060065560c9565b600180546001600160a01b038381166001600160a01b0319831681179093556040519116919082907f8be0079c531659141344cd1fd0a4f28419497f9722a3daafe3b4186f6b6457e0905f90a35050565b5f6020828403121560c2575f5ffd5b5051919050565b610cb7806100d65f395ff3fe608060405234801561000f575f5ffd5b50600436106100cb575f3560e01c8063826f940e11610088578063c10e790511610063578063c10e790514610277578063cba4449a146102a1578063e8eec8ac146102b4578063f2fde38b146102bd575f5ffd5b8063826f940e146101dd5780638424337b146102495780638da5cb5b1461025c575f5ffd5b8063117f7eda146100cf5780631970a9c7146100e457806332ed5b12146100f757806337d4f74314610176578063715018a6146101a35780637ae452d8146101ab575b5f5ffd5b6100e26100dd366004610b4e565b6102d0565b005b6100e26100f2366004610baa565b610466565b610140610105366004610bf2565b600360208190525f91825260409091208054600182015460028301549383015460049093015491939092909160ff8082169161010090041686565b60408051968752602087019590955293850192909252606084015215156080830152151560a082015260c0015b60405180910390f35b610195610184366004610bf2565b60046020525f908152604090205481565b60405190815260200161016d565b6100e26105dc565b6101cd6101b9366004610bf2565b60056020525f908152604090205460ff1681565b604051901515815260200161016d565b61021f6101eb366004610bf2565b600260208190525f918252604090912080546001820154928201546003830154600490930154919392909160ff9091169085565b6040805195865260208601949094529284019190915215156060830152608082015260a00161016d565b6100e2610257366004610bf2565b6105ef565b6001546040516001600160a01b03909116815260200161016d565b61028a610285366004610c09565b6105fc565b60408051921515835260208301919091520161016d565b6100e26102af366004610baa565b61063d565b61019560065481565b6100e26102cb366004610c09565b6108fc565b5f85815260036020526040902054156103305760405162461bcd60e51b815260206004820152601760248201527f50726f706f73616c20616c72656164792065786973747300000000000000000060448201526064015b60405180910390fd5b61033b338383610939565b6103575760405162461bcd60e51b815260040161032790610c36565b335f90815260046020526040902054156103a55760405162461bcd60e51b815260206004820152600f60248201526e105b1c9958591e481b585c9c9a5959608a1b6044820152606401610327565b6040805160c08101825233808252602080830188815242848601908152606085018981525f6080870181815260a088018281528e83526003808852928a90209851895594516001890155925160028801559051908601555160049094018054915161ffff1990921694151561ff001916949094176101009115159190910217909255825190815290810186905286917f7159f9aff7dd7282c3ade2d27140e81c161cf2ac6cee52a7160371b3c58dfd30910160405180910390a25050505050565b5f838152600260205260409020600381015460ff166104bd5760405162461bcd60e51b81526020600482015260136024820152724d61727269616765206e6f742061637469766560681b6044820152606401610327565b805433908114806104d15750808260010154145b61051d5760405162461bcd60e51b815260206004820152601d60248201527f4e6f7420612073706f75736520696e2074686973206d617272696167650000006044820152606401610327565b610528338585610939565b6105445760405162461bcd60e51b815260040161032790610c36565b60038201805460ff1916905581545f9081526004602052604080822082905560018401548252808220919091555185907f9003fe85c349c640aec29df088cb84a3b3833422d99a90577d739bdd6c23889f906105a39084815260200190565b60405180910390a260405185907fa2d0c615bf9ec2291b525816f43ed4fcee81518e3ae812e0bc6172f123369090905f90a25050505050565b6105e46109bd565b6105ed5f6109ea565b565b6105f76109bd565b600655565b6001600160a01b0381165f818152600460205260408120549091811580159061063557505f8281526002602052604090206003015460ff165b925050915091565b610645610a3b565b5f838152600360205260409020600181015433146106985760405162461bcd60e51b815260206004820152601060248201526f4e6f74207468652070726f706f73656560801b6044820152606401610327565b600481015460ff16156106e05760405162461bcd60e51b815260206004820152601060248201526f105b1c9958591e481858d8d95c1d195960821b6044820152606401610327565b6004810154610100900460ff161561072d5760405162461bcd60e51b815260206004820152601060248201526f141c9bdc1bdcd85b08195e1c1a5c995960821b6044820152606401610327565b610738338484610939565b6107545760405162461bcd60e51b815260040161032790610c36565b335f90815260046020526040902054156107a25760405162461bcd60e51b815260206004820152600f60248201526e105b1c9958591e481b585c9c9a5959608a1b6044820152606401610327565b8054600180830154604080516020808201869052818301849052426060808401829052845180850390910181526080840180865281519190930120610120840190945286825260a0830185905260c083015260e08201949094529093610100909101916108369190604080516020808201949094528082019290925280518083038201815260609092019052805191012090565b90525f82815260026020818152604080842085518155858301516001808301919091558683015194820194909455606086015160038201805491151560ff19928316179055608090960151600491820155875485528083528185208790558784018054865294829020879055870180549095169092179093558454915481519283529282019290925282917f206b816b08d19653b70a91061776f38af32bdfd06a347bccac75939dbccbba3b910160405180910390a250506108f760015f55565b505050565b6109046109bd565b6001600160a01b03811661092d57604051631e4fbdf760e01b81525f6004820152602401610327565b610936816109ea565b50565b6040516bffffffffffffffffffffffff19606085901b1660208201525f9081906034016040516020818303038152906040528051906020012090506109b48484808060200260200160405190810160405280939291908181526020018383602002808284375f92019190915250506006549150849050610a63565b95945050505050565b6001546001600160a01b031633146105ed5760405163118cdaa760e01b8152336004820152602401610327565b600180546001600160a01b038381166001600160a01b0319831681179093556040519116919082907f8be0079c531659141344cd1fd0a4f28419497f9722a3daafe3b4186f6b6457e0905f90a35050565b60025f5403610a5d57604051633ee5aeb560e01b815260040160405180910390fd5b60025f55565b5f81815b8551811015610afb575f868281518110610a8357610a83610c6d565b60200260200101519050808311610ac5576040805160208101859052908101829052606001604051602081830303815290604052805190602001209250610af2565b60408051602081018390529081018490526060016040516020818303038152906040528051906020012092505b50600101610a67565b509092149392505050565b5f5f83601f840112610b16575f5ffd5b50813567ffffffffffffffff811115610b2d575f5ffd5b6020830191508360208260051b8501011115610b47575f5ffd5b9250929050565b5f5f5f5f5f60808688031215610b62575f5ffd5b853594506020860135935060408601359250606086013567ffffffffffffffff811115610b8d575f5ffd5b610b9988828901610b06565b969995985093965092949392505050565b5f5f5f60408486031215610bbc575f5ffd5b83359250602084013567ffffffffffffffff811115610bd9575f5ffd5b610be586828701610b06565b9497909650939450505050565b5f60208284031215610c02575f5ffd5b5035919050565b5f60208284031215610c19575f5ffd5b81356001600160a01b0381168114610c2f575f5ffd5b9392505050565b60208082526018908201527f496e76616c6964207a6b50617373706f72742070726f6f660000000000000000604082015260600190565b634e487b7160e01b5f52603260045260245ffdfea26469706673582212208041a13a14a160651e822e6844fbc54ceaef6c389d8a3d0d164a033a67d2c20864736f6c634300081c0033","linkReferences":{}},"methodIdentifiers":{"acceptMarriage(bytes32,bytes32[])":"cba4449a","getMarriageStatus(address)":"c10e7905","marriages(bytes32)":"826f940e","owner()":"8da5cb5b","personToMarriage(bytes32)":"37d4f743","proposals(bytes32)":"32ed5b12","proposeMarriage(bytes32,bytes32,uint256,bytes32[])":"117f7eda","renounceOwnership()":"715018a6","requestDivorce(bytes32,bytes32[])":"1970a9c7","transferOwnership(address)":"f2fde38b","updateZKPassportMerkleRoot(bytes32)":"8424337b","validPassportHashes(bytes32)":"7ae452d8","zkPassportMerkleRoot()":"e8eec8ac"},"id":25}