{"abi":[{"type":"constructor","inputs":[{"name":"_zkPassportVerifier","type":"address","internalType":"address"},{"name":"_jurisdictions","type":"string[]","internalType":"string[]"},{"name":"_minimumAges","type":"uint256[]","internalType":"uint256[]"}],"stateMutability":"nonpayable"},{"type":"function","name":"acceptMarriage","inputs":[{"name":"proposalId","type":"bytes32","internalType":"bytes32"},{"name":"certificateHash","type":"bytes32","internalType":"bytes32"}],"outputs":[],"stateMutability":"nonpayable"},{"type":"function","name":"addJurisdiction","inputs":[{"name":"jurisdiction","type":"string","internalType":"string"},{"name":"_minimumAge","type":"uint256","internalType":"uint256"}],"outputs":[],"stateMutability":"nonpayable"},{"type":"function","name":"createMarriage","inputs":[{"name":"marriageId","type":"bytes32","internalType":"bytes32"},{"name":"spouse1Nullifier","type":"bytes32","internalType":"bytes32"},{"name":"spouse2Nullifier","type":"bytes32","internalType":"bytes32"},{"name":"proof1Hash","type":"bytes32","internalType":"bytes32"},{"name":"proof2Hash","type":"bytes32","internalType":"bytes32"}],"outputs":[],"stateMutability":"nonpayable"},{"type":"function","name":"createMarriageProposal","inputs":[{"name":"proposalId","type":"bytes32","internalType":"bytes32"},{"name":"proposerNullifier","type":"bytes32","internalType":"bytes32"},{"name":"proposeeNullifier","type":"bytes32","internalType":"bytes32"},{"name":"proposalHash","type":"bytes32","internalType":"bytes32"},{"name":"expirationTime","type":"uint256","internalType":"uint256"},{"name":"jurisdiction","type":"string","internalType":"string"},{"name":"zkPassportProof1","type":"bytes","internalType":"bytes"},{"name":"zkPassportProof2","type":"bytes","internalType":"bytes"}],"outputs":[],"stateMutability":"nonpayable"},{"type":"function","name":"getMarriage","inputs":[{"name":"marriageId","type":"bytes32","internalType":"bytes32"}],"outputs":[{"name":"spouse1Nullifier","type":"bytes32","internalType":"bytes32"},{"name":"spouse2Nullifier","type":"bytes32","internalType":"bytes32"},{"name":"marriageDate","type":"uint256","internalType":"uint256"},{"name":"isActive","type":"bool","internalType":"bool"},{"name":"jurisdiction","type":"string","internalType":"string"}],"stateMutability":"view"},{"type":"function","name":"getMarriageStatusByNullifier","inputs":[{"name":"nullifier","type":"bytes32","internalType":"bytes32"}],"outputs":[{"name":"isMarried","type":"bool","internalType":"bool"},{"name":"marriageId","type":"bytes32","internalType":"bytes32"},{"name":"marriageDate","type":"uint256","internalType":"uint256"}],"stateMutability":"view"},{"type":"function","name":"getMinimumAge","inputs":[{"name":"jurisdiction","type":"string","internalType":"string"}],"outputs":[{"name":"","type":"uint256","internalType":"uint256"}],"stateMutability":"view"},{"type":"function","name":"isJurisdictionSupported","inputs":[{"name":"jurisdiction","type":"string","internalType":"string"}],"outputs":[{"name":"","type":"bool","internalType":"bool"}],"stateMutability":"view"},{"type":"function","name":"isNullifierUsed","inputs":[{"name":"nullifier","type":"bytes32","internalType":"bytes32"}],"outputs":[{"name":"","type":"bool","internalType":"bool"}],"stateMutability":"view"},{"type":"function","name":"marriages","inputs":[{"name":"","type":"bytes32","internalType":"bytes32"}],"outputs":[{"name":"spouse1Nullifier","type":"bytes32","internalType":"bytes32"},{"name":"spouse2Nullifier","type":"bytes32","internalType":"bytes32"},{"name":"proof1Hash","type":"bytes32","internalType":"bytes32"},{"name":"proof2Hash","type":"bytes32","internalType":"bytes32"},{"name":"marriageDate","type":"uint256","internalType":"uint256"},{"name":"isActive","type":"bool","internalType":"bool"},{"name":"jurisdiction","type":"string","internalType":"string"},{"name":"certificateHash","type":"bytes32","internalType":"bytes32"}],"stateMutability":"view"},{"type":"function","name":"minimumAge","inputs":[{"name":"","type":"string","internalType":"string"}],"outputs":[{"name":"","type":"uint256","internalType":"uint256"}],"stateMutability":"view"},{"type":"function","name":"nullifierToMarriage","inputs":[{"name":"","type":"bytes32","internalType":"bytes32"}],"outputs":[{"name":"","type":"bytes32","internalType":"bytes32"}],"stateMutability":"view"},{"type":"function","name":"owner","inputs":[],"outputs":[{"name":"","type":"address","internalType":"address"}],"stateMutability":"view"},{"type":"function","name":"proposals","inputs":[{"name":"","type":"bytes32","internalType":"bytes32"}],"outputs":[{"name":"proposerNullifier","type":"bytes32","internalType":"bytes32"},{"name":"proposeeNullifier","type":"bytes32","internalType":"bytes32"},{"name":"proposalHash","type":"bytes32","internalType":"bytes32"},{"name":"timestamp","type":"uint256","internalType":"uint256"},{"name":"expiresAt","type":"uint256","internalType":"uint256"},{"name":"isAccepted","type":"bool","internalType":"bool"},{"name":"isExpired","type":"bool","internalType":"bool"},{"name":"jurisdiction","type":"string","internalType":"string"}],"stateMutability":"view"},{"type":"function","name":"removeJurisdiction","inputs":[{"name":"jurisdiction","type":"string","internalType":"string"}],"outputs":[],"stateMutability":"nonpayable"},{"type":"function","name":"renounceOwnership","inputs":[],"outputs":[],"stateMutability":"nonpayable"},{"type":"function","name":"requestDivorce","inputs":[{"name":"marriageId","type":"bytes32","internalType":"bytes32"},{"name":"requesterNullifier","type":"bytes32","internalType":"bytes32"}],"outputs":[],"stateMutability":"nonpayable"},{"type":"function","name":"supportedJurisdictions","inputs":[{"name":"","type":"string","internalType":"string"}],"outputs":[{"name":"","type":"bool","internalType":"bool"}],"stateMutability":"view"},{"type":"function","name":"transferOwnership","inputs":[{"name":"newOwner","type":"address","internalType":"address"}],"outputs":[],"stateMutability":"nonpayable"},{"type":"function","name":"updateZKPassportVerifier","inputs":[{"name":"newVerifier","type":"address","internalType":"address"}],"outputs":[],"stateMutability":"nonpayable"},{"type":"function","name":"usedNullifiers","inputs":[{"name":"","type":"bytes32","internalType":"bytes32"}],"outputs":[{"name":"","type":"bool","internalType":"bool"}],"stateMutability":"view"},{"type":"function","name":"verifyMarriageCertificate","inputs":[{"name":"marriageId","type":"bytes32","internalType":"bytes32"},{"name":"certificateHash","type":"bytes32","internalType":"bytes32"},{"name":"requesterNullifier","type":"bytes32","internalType":"bytes32"}],"outputs":[{"name":"isValid","type":"bool","internalType":"bool"}],"stateMutability":"view"},{"type":"function","name":"zkPassportVerifier","inputs":[],"outputs":[{"name":"","type":"address","internalType":"address"}],"stateMutability":"view"},{"type":"event","name":"DivorceRequested","inputs":[{"name":"marriageId","type":"bytes32","indexed":true,"internalType":"bytes32"},{"name":"requesterNullifier","type":"bytes32","indexed":false,"internalType":"bytes32"}],"anonymous":false},{"type":"event","name":"JurisdictionAdded","inputs":[{"name":"jurisdiction","type":"string","indexed":false,"internalType":"string"},{"name":"minimumAge","type":"uint256","indexed":false,"internalType":"uint256"}],"anonymous":false},{"type":"event","name":"MarriageCreated","inputs":[{"name":"marriageId","type":"bytes32","indexed":true,"internalType":"bytes32"},{"name":"spouse1Nullifier","type":"bytes32","indexed":false,"internalType":"bytes32"},{"name":"spouse2Nullifier","type":"bytes32","indexed":false,"internalType":"bytes32"},{"name":"jurisdiction","type":"string","indexed":false,"internalType":"string"}],"anonymous":false},{"type":"event","name":"MarriageDissolved","inputs":[{"name":"marriageId","type":"bytes32","indexed":true,"internalType":"bytes32"}],"anonymous":false},{"type":"event","name":"MarriageProposed","inputs":[{"name":"proposalId","type":"bytes32","indexed":true,"internalType":"bytes32"},{"name":"proposerNullifier","type":"bytes32","indexed":false,"internalType":"bytes32"},{"name":"proposeeNullifier","type":"bytes32","indexed":false,"internalType":"bytes32"},{"name":"jurisdiction","type":"string","indexed":false,"internalType":"string"}],"anonymous":false},{"type":"event","name":"OwnershipTransferred","inputs":[{"name":"previousOwner","type":"address","indexed":true,"internalType":"address"},{"name":"newOwner","type":"address","indexed":true,"internalType":"address"}],"anonymous":false},{"type":"event","name":"ZKPassportVerifierUpdated","inputs":[{"name":"newVerifier","type":"address","indexed":false,"internalType":"address"}],"anonymous":false},{"type":"error","name":"AlreadyMarried","inputs":[]},{"type":"error","name":"InvalidZKPassportProof","inputs":[]},{"type":"error","name":"MarriageNotActive","inputs":[]},{"type":"error","name":"NotAuthorized","inputs":[]},{"type":"error","name":"NullifierAlreadyUsed","inputs":[]},{"type":"error","name":"OwnableInvalidOwner","inputs":[{"name":"owner","type":"address","internalType":"address"}]},{"type":"error","name":"OwnableUnauthorizedAccount","inputs":[{"name":"account","type":"address","internalType":"address"}]},{"type":"error","name":"ProposalExpired","inputs":[]},{"type":"error","name":"ProposalNotFound","inputs":[]},{"type":"error","name":"ReentrancyGuardReentrantCall","inputs":[]},{"type":"error","name":"UnsupportedJurisdiction","inputs":[]}],"bytecode":{"object":"0x6080604052346102ad57611bba8038038061001981610336565b9283398101906060818303126102ad5780516001600160a01b038116908190036102ad5760208201516001600160401b0381116102ad5782019183601f840112156102ad5782519261007261006d8561035b565b610336565b9360208086838152019160051b830101918683116102ad5760208101915b8383106102b157505050506040810151906001600160401b0382116102ad57019280601f850112156102ad5783516100ca61006d8261035b565b9460208087848152019260051b8201019283116102ad57602001905b82821061029d5750505060015f55331561028a5760018054336001600160a01b0319821681179092556040519291906001600160a01b03167f8be0079c531659141344cd1fd0a4f28419497f9722a3daafe3b4186f6b6457e05f80a3600680546001600160a01b031916919091179055815183510361025457505f5b8151811015610245578060208061017b60019486610372565b51604051928184925191829101835e810160078152030190208260ff198254161790556101a88185610372565b516020806101b68487610372565b51604051928184925191829101835e81016008815203019020557f87b5893f0e15e50f6a18a9ee2950fb4e27a47b04277827fc5d91ce6edf283e786101fb8285610372565b5160606102088488610372565b51916020604051938492604084528051928391826040870152018585015e5f8383018501526020830152601f01601f19168101030190a101610162565b60405161181f908161039b8239f35b62461bcd60e51b81526020600482015260116024820152704d69736d6174636865642061727261797360781b6044820152606490fd5b631e4fbdf760e01b5f525f60045260245ffd5b81518152602091820191016100e6565b5f80fd5b82516001600160401b0381116102ad57820188603f820112156102ad576020810151916001600160401b038311610322576102f5601f8401601f1916602001610336565b8381526040838501018b106102ad575f602085819660408397018386015e83010152815201920191610090565b634e487b7160e01b5f52604160045260245ffd5b6040519190601f01601f191682016001600160401b0381118382101761032257604052565b6001600160401b0381116103225760051b60200190565b80518210156103865760209160051b010190565b634e487b7160e01b5f52603260045260245ffdfe60806040526004361015610011575f80fd5b5f3560e01c8062e97b51146113f85780630fe00f6d146113435780631d2b1bea14611052578063206137aa1461102357806322dc7b4c14611023578063253a920914610feb57806332ed5b1214610f5857806345fa78e914610f2a5780634d23bce214610ef7578063715018a614610e9c5780637b09afc114610e4b578063826f940e14610db65780638da5cb5b14610d8e578063c45db1bd14610ca3578063c4797ec514610c7b578063c678e12814610c0a578063cd0f24401461083b578063cd3cd50514610776578063cfb89de5146102e3578063ee9ce1a01461028d578063f2fde38b14610203578063f3ed0c55146101d95763f7734d4e14610115575f80fd5b346101d55760203660031901126101d55760605f5f6004355f52600460205260405f205480610153575b604051921515835260208301526040820152f35b915050805f52600260205260405f20906040519161017083611492565b8054835260018101546020840152600281015460408401526003810154848401526004810154926080810193845260e0600760ff6005850154169360a0840194151585526101c06006820161158a565b60c0850152015491015251151591519061013f565b5f80fd5b346101d55760203660031901126101d5576004355f526004602052602060405f2054604051908152f35b346101d55760203660031901126101d5576004356001600160a01b038116908190036101d557610231611733565b801561027a57600180546001600160a01b0319811683179091556001600160a01b03167f8be0079c531659141344cd1fd0a4f28419497f9722a3daafe3b4186f6b6457e05f80a3005b631e4fbdf760e01b5f525f60045260245ffd5b346101d55760203660031901126101d5576004356001600160401b0381116101d55760ff60206102c281933690600401611465565b91908260405193849283378101600781520301902054166040519015158152f35b346101d5576102f13661164e565b906102fa61175a565b5f52600360205260405f20805491821561076757600482015442116107585760058201805460ff81166107205760019060ff19161790556001820191825493600682019260405160208101908382528760408201524260608201525f8187549161036383611552565b926001811690811561070257506001146106c3575b61038b925003601f1981018352826114ae565b5190209561047760405160208101908582526570726f6f663160d01b6040820152602681526103bb6046826114ae565b519020604051602081019084825265383937b7b31960d11b6040820152602681526103e76046826114ae565b519020604051956103f787611492565b8652602086019384526040860191825260608601908152608086019042825260a0870192600184526104288a61158a565b9560c0890196875260e089019788528c5f52600260205260405f2098518955516001890155516002880155516003870155516004860155511515600585019060ff801983541691151516179055565b51805160068401916001600160401b0382116106af576104978354611552565b601f811161066a575b50602090601f8311600114610603576007949392915f91836105f8575b50508160011b915f199060031b1c19161790555b5191015580545f5260046020528360405f205582545f5260046020528360405f205580545f52600560205260405f20600160ff1982541617905582545f52600560205260405f20600160ff198254161790555491546040519283526020830152606060408301525f9080549061054682611552565b918260608601526001811690815f146105c8575060011461057c575b845f5160206117ca5f395f51905f5285850386a260015f55005b5f90815260208120939250905b8082106105ad57509091508101608001815f5160206117ca5f395f51905f52610562565b91926001816020925460808588010152019101909291610589565b859450608092505f5160206117ca5f395f51905f529593915060ff191682840152151560051b8201019192610562565b015190508a806104bd565b90601f19831691845f52815f20925f5b81811061065257509160019391856007989796941061063a575b505050811b0190556104d1565b01515f1960f88460031b161c191690558a808061062d565b92936020600181928786015181550195019301610613565b835f5260205f20601f840160051c810191602085106106a5575b601f0160051c01905b81811061069a57506104a0565b5f815560010161068d565b9091508190610684565b634e487b7160e01b5f52604160045260245ffd5b5050865f528160205f205f905b8382106106e7575050608061038b92820101610378565b602091925080600191546080858801015201910183916106d0565b6080925061038b94915060ff19168284015280151502820101610378565b60405162461bcd60e51b815260206004820152601060248201526f105b1c9958591e481858d8d95c1d195960821b6044820152606490fd5b6328a7237960e01b5f5260045ffd5b63635e873760e01b5f5260045ffd5b346101d55760203660031901126101d5576004355f52600260205260405f20604051906107a282611492565b805482526108376001820154916020840192835260028101546040850152600381015460608501526004810154936080810194855260ff6005830154169060a08101911515825260076107f76006850161158a565b938460c0840152015460e082015251935194519051151590604051958695865260208601526040850152606084015260a0608084015260a083019061162a565b0390f35b346101d5576101003660031901126101d55760243560043560443560a4356001600160401b0381116101d557610875903690600401611465565b939060c4356001600160401b0381116101d557610896903690600401611465565b9060e4356001600160401b0381116101d5576108b6903690600401611465565b9290916108c161175a565b60ff6040518a8782376020818c81016007815203019020541615610bfb57855f52600560205260ff60405f205416610bec57865f52600560205260ff60405f205416610bec57855f52600460205260405f2054610bdd57865f52600460205260405f2054610bdd57875f52600360205260405f2054610b9857610945918691611778565b15610b8957610955918591611778565b15610b89576040519461096786611492565b82865260066020870196858852604081016064358152606082019042825260808301608435815260a08401925f845260c08501925f84526109a936898b6114cf565b9c60e087019d8e528c5f52600360205260405f20965187555160018701555160028601555160038501555160048401556109f66005840192511515839060ff801983541691151516179055565b51151561ff0082549160081b169061ff0019161790550195519586516001600160401b0381116106af57610a2a8254611552565b601f8111610b44575b506020601f8211600114610aba579080610aa6959493927fb44409114cd579122e118eecf0df8d63061cc10977904e83fe065b7021b236a0999a5f92610aaf575b50508160011b915f199060031b1c19161790555b60405194859485526020850152606060408501526060840191611664565b0390a260015f55005b015190508a80610a74565b601f19821698835f52815f20995f5b818110610b2c5750996001928492610aa6989796957fb44409114cd579122e118eecf0df8d63061cc10977904e83fe065b7021b236a09c9d10610b14575b505050811b019055610a88565b01515f1960f88460031b161c191690558a8080610b07565b838301518c556001909b019a60209384019301610ac9565b825f5260205f20601f830160051c81019160208410610b7f575b601f0160051c01905b818110610b745750610a33565b5f8155600101610b67565b9091508190610b5e565b63038faaa560e11b5f5260045ffd5b60405162461bcd60e51b815260206004820152601760248201527f50726f706f73616c20616c7265616479206578697374730000000000000000006044820152606490fd5b632442a34760e01b5f5260045ffd5b636569570160e11b5f5260045ffd5b630ef2e96160e31b5f5260045ffd5b346101d55760203660031901126101d5576004356001600160401b0381116101d5576020610c3d5f923690600401611465565b9190610c47611733565b604051838282378281858101600781520301902060ff19815416905582604051938492833781016008815203019020555f80f35b346101d5575f3660031901126101d5576006546040516001600160a01b039091168152602090f35b346101d557610cb13661164e565b610cb961175a565b815f52600260205260405f20906005820180549160ff831615610d7f578354928184141580610d71575b610d625785947f9003fe85c349c640aec29df088cb84a3b3833422d99a90577d739bdd6c23889f9460209460019360ff191690555f52600484525f604081205501545f52600482525f6040812055604051908152a27fa2d0c615bf9ec2291b525816f43ed4fcee81518e3ae812e0bc6172f1233690905f80a260015f55005b63ea8e4eb560e01b5f5260045ffd5b508160018601541415610ce3565b639703e8bd60e01b5f5260045ffd5b346101d5575f3660031901126101d5576001546040516001600160a01b039091168152602090f35b346101d55760203660031901126101d5576004355f52600260205260405f208054600182015491610e416002820154916003810154600482015460ff600584015416916007610e076006860161158a565b9401549560405198899889526020890152604088015260608701526080860152151560a085015261010060c085015261010084019061162a565b9060e08301520390f35b346101d55760203660031901126101d5576004356001600160401b0381116101d5576020610e7e81923690600401611465565b91908260405193849283378101600881520301902054604051908152f35b346101d5575f3660031901126101d557610eb4611733565b600180546001600160a01b031981169091555f906001600160a01b03167f8be0079c531659141344cd1fd0a4f28419497f9722a3daafe3b4186f6b6457e08280a3005b346101d55760208080610f0936611514565b604051928184925191829101835e8101600881520301902054604051908152f35b346101d55760603660031901126101d5576020610f4e604435602435600435611684565b6040519015158152f35b346101d55760203660031901126101d5576004355f52600360205260405f20805461083760018301549260ff6002820154916003810154600482015490610fa660066005850154940161158a565b9460405198899889526020890152604088015260608701526080860152818116151560a086015260081c16151560c084015261010060e084015261010083019061162a565b346101d557602060ff8180610fff36611514565b604051928184925191829101835e8101600781520301902054166040519015158152f35b346101d55760203660031901126101d5576004355f526005602052602060ff60405f2054166040519015158152f35b346101d55760a03660031901126101d55760043560243560443561107461175a565b815f52600560205260ff60405f205416610bec57805f52600560205260ff60405f205416610bec57815f52600460205260405f2054610bdd57805f52600460205260405f2054610bdd576040516020810190848252426040820152604081526110de6060826114ae565b519020906040516110ee81611492565b8381526020810192828452604082019360643585526111906060840160843581526080850142815260a08601916001835260409889519561112f8b886114ae565b6007875266191959985d5b1d60ca1b602088015260c0890196875260e089019788528c5f5260026020528a5f2098518955516001890155516002880155516003870155516004860155511515600585019060ff801983541691151516179055565b51805160068401916001600160401b0382116106af576111b08354611552565b601f81116112fe575b50602090601f831160011461128157935f5160206117ca5f395f51905f52989693836060979460079460a09b985f92611276575b50508160011b915f199060031b1c19161790555b51910155835f52600460205286825f2055805f52600460205286825f2055835f526005602052815f20600160ff19825416179055805f526005602052815f20600160ff19825416179055815193845260208401528201526007606082015266191959985d5b1d60ca1b6080820152a260015f55005b015190508d806111ed565b90601f19831691845f52815f20925f5b8181106112e657508460079460a09b98945f5160206117ca5f395f51905f529d9b989460609b98600195106112ce575b505050811b019055611201565b01515f1960f88460031b161c191690558d80806112c1565b92936020600181928786015181550195019301611291565b835f5260205f20601f840160051c81019160208510611339575b601f0160051c01905b81811061132e57506111b9565b5f8155600101611321565b9091508190611318565b346101d55760403660031901126101d5576004356001600160401b0381116101d5576113947f87b5893f0e15e50f6a18a9ee2950fb4e27a47b04277827fc5d91ce6edf283e78913690600401611465565b60243561139f611733565b604051828482376020818481016007815203019020600160ff1982541617905580604051838582376020818581016008815203019020556113ed604051938493604085526040850191611664565b9060208301520390a1005b346101d55760203660031901126101d5576004356001600160a01b038116908190036101d55760207fa45d60f9a04c5d4fa0d11954a836395a6be6f5e6349f49e5a909f47b475562269161144a611733565b600680546001600160a01b03191682179055604051908152a1005b9181601f840112156101d5578235916001600160401b0383116101d557602083818601950101116101d557565b61010081019081106001600160401b038211176106af57604052565b90601f801991011681019081106001600160401b038211176106af57604052565b9291926001600160401b0382116106af57604051916114f8601f8201601f1916602001846114ae565b8294818452818301116101d5578281602093845f960137010152565b60206003198201126101d557600435906001600160401b0382116101d557806023830112156101d55781602461154f936004013591016114cf565b90565b90600182811c92168015611580575b602083101461156c57565b634e487b7160e01b5f52602260045260245ffd5b91607f1691611561565b9060405191825f82549261159d84611552565b808452936001811690811561160857506001146115c4575b506115c2925003836114ae565b565b90505f9291925260205f20905f915b8183106115ec5750509060206115c2928201015f6115b5565b60209193508060019154838589010152019101909184926115d3565b9050602092506115c294915060ff191682840152151560051b8201015f6115b5565b805180835260209291819084018484015e5f828201840152601f01601f1916010190565b60409060031901126101d5576004359060243590565b908060209392818452848401375f828201840152601f01601f1916010190565b9190915f52600260205260405f2090604051906116a082611492565b8254825260018301549160208101928352600284015460408201526003840154606082015260048401546080820152600760ff6005860154169460a0830195151586526116ef6006820161158a565b60c08401520154938460e0830152511561172a5751811415918261171e575b5050611718571490565b50505f90565b51141590505f8061170e565b50505050505f90565b6001546001600160a01b0316330361174757565b63118cdaa760e01b5f523360045260245ffd5b60025f54146117695760025f55565b633ee5aeb560e01b5f5260045ffd5b81156117c2576117899136916114cf565b602081519101206040516020810191825268373ab63634b334b2b960b91b6040820152602981526117bb6049826114ae565b5190201490565b5050505f9056fec7f48092b6742fb39130b9a6f4059de43925295e7dc801a500000db5433a14a4a26469706673582212203a326c09f5f7be85cc64bdd498a4b60a6e9fcd09279f8a754ca35b03d789e7c764736f6c634300081c0033","linkReferences":{}},"methodIdentifiers":{"acceptMarriage(bytes32,bytes32)":"cfb89de5","addJurisdiction(string,uint256)":"0fe00f6d","createMarriage(bytes32,bytes32,bytes32,bytes32,bytes32)":"1d2b1bea","createMarriageProposal(bytes32,bytes32,bytes32,bytes32,uint256,string,bytes,bytes)":"cd0f2440","getMarriage(bytes32)":"cd3cd505","getMarriageStatusByNullifier(bytes32)":"f7734d4e","getMinimumAge(string)":"7b09afc1","isJurisdictionSupported(string)":"ee9ce1a0","isNullifierUsed(bytes32)":"22dc7b4c","marriages(bytes32)":"826f940e","minimumAge(string)":"4d23bce2","nullifierToMarriage(bytes32)":"f3ed0c55","owner()":"8da5cb5b","proposals(bytes32)":"32ed5b12","removeJurisdiction(string)":"c678e128","renounceOwnership()":"715018a6","requestDivorce(bytes32,bytes32)":"c45db1bd","supportedJurisdictions(string)":"253a9209","transferOwnership(address)":"f2fde38b","updateZKPassportVerifier(address)":"00e97b51","usedNullifiers(bytes32)":"206137aa","verifyMarriageCertificate(bytes32,bytes32,bytes32)":"45fa78e9","zkPassportVerifier()":"c4797ec5"},"id":23}