{"abi":[{"type":"constructor","inputs":[{"name":"_zkPassportVerifier","type":"address","internalType":"address"}],"stateMutability":"nonpayable"},{"type":"function","name":"MINIMUM_AGE","inputs":[],"outputs":[{"name":"","type":"uint256","internalType":"uint256"}],"stateMutability":"view"},{"type":"function","name":"acceptMarriage","inputs":[{"name":"proposalId","type":"bytes32","internalType":"bytes32"},{"name":"certificateHash","type":"bytes32","internalType":"bytes32"}],"outputs":[],"stateMutability":"nonpayable"},{"type":"function","name":"createMarriage","inputs":[{"name":"marriageId","type":"bytes32","internalType":"bytes32"},{"name":"spouse1Nullifier","type":"bytes32","internalType":"bytes32"},{"name":"spouse2Nullifier","type":"bytes32","internalType":"bytes32"},{"name":"proof1Hash","type":"bytes32","internalType":"bytes32"},{"name":"proof2Hash","type":"bytes32","internalType":"bytes32"}],"outputs":[],"stateMutability":"nonpayable"},{"type":"function","name":"createMarriageProposal","inputs":[{"name":"proposalId","type":"bytes32","internalType":"bytes32"},{"name":"proposerNullifier","type":"bytes32","internalType":"bytes32"},{"name":"proposeeNullifier","type":"bytes32","internalType":"bytes32"},{"name":"proposalHash","type":"bytes32","internalType":"bytes32"},{"name":"expirationTime","type":"uint256","internalType":"uint256"},{"name":"jurisdiction","type":"string","internalType":"string"},{"name":"zkPassportProof1","type":"bytes","internalType":"bytes"},{"name":"zkPassportProof2","type":"bytes","internalType":"bytes"}],"outputs":[],"stateMutability":"nonpayable"},{"type":"function","name":"getMarriage","inputs":[{"name":"marriageId","type":"bytes32","internalType":"bytes32"}],"outputs":[{"name":"spouse1Nullifier","type":"bytes32","internalType":"bytes32"},{"name":"spouse2Nullifier","type":"bytes32","internalType":"bytes32"},{"name":"marriageDate","type":"uint256","internalType":"uint256"},{"name":"isActive","type":"bool","internalType":"bool"},{"name":"jurisdiction","type":"string","internalType":"string"}],"stateMutability":"view"},{"type":"function","name":"getMarriageStatusByNullifier","inputs":[{"name":"nullifier","type":"bytes32","internalType":"bytes32"}],"outputs":[{"name":"isMarried","type":"bool","internalType":"bool"},{"name":"marriageId","type":"bytes32","internalType":"bytes32"},{"name":"marriageDate","type":"uint256","internalType":"uint256"}],"stateMutability":"view"},{"type":"function","name":"getMinimumAge","inputs":[],"outputs":[{"name":"","type":"uint256","internalType":"uint256"}],"stateMutability":"pure"},{"type":"function","name":"isNullifierUsed","inputs":[{"name":"nullifier","type":"bytes32","internalType":"bytes32"}],"outputs":[{"name":"","type":"bool","internalType":"bool"}],"stateMutability":"view"},{"type":"function","name":"marriages","inputs":[{"name":"","type":"bytes32","internalType":"bytes32"}],"outputs":[{"name":"spouse1Nullifier","type":"bytes32","internalType":"bytes32"},{"name":"spouse2Nullifier","type":"bytes32","internalType":"bytes32"},{"name":"proof1Hash","type":"bytes32","internalType":"bytes32"},{"name":"proof2Hash","type":"bytes32","internalType":"bytes32"},{"name":"marriageDate","type":"uint256","internalType":"uint256"},{"name":"isActive","type":"bool","internalType":"bool"},{"name":"jurisdiction","type":"string","internalType":"string"},{"name":"certificateHash","type":"bytes32","internalType":"bytes32"}],"stateMutability":"view"},{"type":"function","name":"nullifierToMarriage","inputs":[{"name":"","type":"bytes32","internalType":"bytes32"}],"outputs":[{"name":"","type":"bytes32","internalType":"bytes32"}],"stateMutability":"view"},{"type":"function","name":"owner","inputs":[],"outputs":[{"name":"","type":"address","internalType":"address"}],"stateMutability":"view"},{"type":"function","name":"proposals","inputs":[{"name":"","type":"bytes32","internalType":"bytes32"}],"outputs":[{"name":"proposerNullifier","type":"bytes32","internalType":"bytes32"},{"name":"proposeeNullifier","type":"bytes32","internalType":"bytes32"},{"name":"proposalHash","type":"bytes32","internalType":"bytes32"},{"name":"timestamp","type":"uint256","internalType":"uint256"},{"name":"expiresAt","type":"uint256","internalType":"uint256"},{"name":"isAccepted","type":"bool","internalType":"bool"},{"name":"isExpired","type":"bool","internalType":"bool"},{"name":"jurisdiction","type":"string","internalType":"string"}],"stateMutability":"view"},{"type":"function","name":"renounceOwnership","inputs":[],"outputs":[],"stateMutability":"nonpayable"},{"type":"function","name":"requestDivorce","inputs":[{"name":"marriageId","type":"bytes32","internalType":"bytes32"},{"name":"requesterNullifier","type":"bytes32","internalType":"bytes32"}],"outputs":[],"stateMutability":"nonpayable"},{"type":"function","name":"transferOwnership","inputs":[{"name":"newOwner","type":"address","internalType":"address"}],"outputs":[],"stateMutability":"nonpayable"},{"type":"function","name":"updateZKPassportVerifier","inputs":[{"name":"newVerifier","type":"address","internalType":"address"}],"outputs":[],"stateMutability":"nonpayable"},{"type":"function","name":"usedNullifiers","inputs":[{"name":"","type":"bytes32","internalType":"bytes32"}],"outputs":[{"name":"","type":"bool","internalType":"bool"}],"stateMutability":"view"},{"type":"function","name":"verifyMarriageCertificate","inputs":[{"name":"marriageId","type":"bytes32","internalType":"bytes32"},{"name":"certificateHash","type":"bytes32","internalType":"bytes32"},{"name":"requesterNullifier","type":"bytes32","internalType":"bytes32"}],"outputs":[{"name":"isValid","type":"bool","internalType":"bool"}],"stateMutability":"view"},{"type":"function","name":"zkPassportVerifier","inputs":[],"outputs":[{"name":"","type":"address","internalType":"address"}],"stateMutability":"view"},{"type":"event","name":"DivorceRequested","inputs":[{"name":"marriageId","type":"bytes32","indexed":true,"internalType":"bytes32"},{"name":"requesterNullifier","type":"bytes32","indexed":false,"internalType":"bytes32"}],"anonymous":false},{"type":"event","name":"MarriageCreated","inputs":[{"name":"marriageId","type":"bytes32","indexed":true,"internalType":"bytes32"},{"name":"spouse1Nullifier","type":"bytes32","indexed":false,"internalType":"bytes32"},{"name":"spouse2Nullifier","type":"bytes32","indexed":false,"internalType":"bytes32"},{"name":"jurisdiction","type":"string","indexed":false,"internalType":"string"}],"anonymous":false},{"type":"event","name":"MarriageDissolved","inputs":[{"name":"marriageId","type":"bytes32","indexed":true,"internalType":"bytes32"}],"anonymous":false},{"type":"event","name":"MarriageProposed","inputs":[{"name":"proposalId","type":"bytes32","indexed":true,"internalType":"bytes32"},{"name":"proposerNullifier","type":"bytes32","indexed":false,"internalType":"bytes32"},{"name":"proposeeNullifier","type":"bytes32","indexed":false,"internalType":"bytes32"},{"name":"jurisdiction","type":"string","indexed":false,"internalType":"string"}],"anonymous":false},{"type":"event","name":"OwnershipTransferred","inputs":[{"name":"previousOwner","type":"address","indexed":true,"internalType":"address"},{"name":"newOwner","type":"address","indexed":true,"internalType":"address"}],"anonymous":false},{"type":"event","name":"ZKPassportVerifierUpdated","inputs":[{"name":"newVerifier","type":"address","indexed":false,"internalType":"address"}],"anonymous":false},{"type":"error","name":"AlreadyMarried","inputs":[]},{"type":"error","name":"InvalidZKPassportProof","inputs":[]},{"type":"error","name":"MarriageNotActive","inputs":[]},{"type":"error","name":"NotAuthorized","inputs":[]},{"type":"error","name":"NullifierAlreadyUsed","inputs":[]},{"type":"error","name":"OwnableInvalidOwner","inputs":[{"name":"owner","type":"address","internalType":"address"}]},{"type":"error","name":"OwnableUnauthorizedAccount","inputs":[{"name":"account","type":"address","internalType":"address"}]},{"type":"error","name":"ProposalExpired","inputs":[]},{"type":"error","name":"ProposalNotFound","inputs":[]},{"type":"error","name":"ReentrancyGuardReentrantCall","inputs":[]}],"bytecode":{"object":"0x60803460d157601f61165338819003918201601f19168301916001600160401b0383118484101760d55780849260209460405283398101031260d157516001600160a01b0381169081900360d15760015f55331560be5760018054336001600160a01b0319821681179092556040519291906001600160a01b03167f8be0079c531659141344cd1fd0a4f28419497f9722a3daafe3b4186f6b6457e05f80a3600680546001600160a01b03191691909117905561156990816100ea8239f35b631e4fbdf760e01b5f525f60045260245ffd5b5f80fd5b634e487b7160e01b5f52604160045260245ffdfe60806040526004361015610011575f80fd5b5f3560e01c8062e97b511461119c5780631155b61f14610dcd5780631d2b1bea14610eaa578063206137aa14610e7b57806322dc7b4c14610e7b57806332ed5b1214610de857806334b5f8fb14610dcd57806345fa78e914610d9f578063715018a614610d44578063826f940e14610caf5780638da5cb5b14610c87578063c45db1bd14610b9c578063c4797ec514610b74578063cd0f2440146107ba578063cd3cd505146106f5578063cfb89de514610261578063f2fde38b146101d7578063f3ed0c55146101ad5763f7734d4e146100e9575f80fd5b346101a95760203660031901126101a95760605f5f6004355f52600460205260405f205480610127575b604051921515835260208301526040820152f35b915050805f52600260205260405f20906040519161014483611241565b8054835260018101546020840152600281015460408401526003810154848401526004810154926080810193845260e0600760ff6005850154169360a08401941515855261019460068201611280565b60c08501520154910152511515915190610113565b5f80fd5b346101a95760203660031901126101a9576004355f526004602052602060405f2054604051908152f35b346101a95760203660031901126101a9576004356001600160a01b038116908190036101a95761020561147d565b801561024e57600180546001600160a01b0319811683179091556001600160a01b03167f8be0079c531659141344cd1fd0a4f28419497f9722a3daafe3b4186f6b6457e05f80a3005b631e4fbdf760e01b5f525f60045260245ffd5b346101a95761026f36611344565b906102786114a4565b5f52600360205260405f2080549182156106e657600482015442116106d75760058201805460ff811661069f5760019060ff19161790556001820191825493600682019260405160208101908382528760408201524260608201525f818754916102e183611209565b92600181169081156106815750600114610642575b610309925003601f19810183528261125e565b519020956103f560405160208101908582526570726f6f663160d01b60408201526026815261033960468261125e565b519020604051602081019084825265383937b7b31960d11b60408201526026815261036560468261125e565b5190206040519561037587611241565b8652602086019384526040860191825260608601908152608086019042825260a0870192600184526103a68a611280565b9560c0890196875260e089019788528c5f52600260205260405f2098518955516001890155516002880155516003870155516004860155511515600585019060ff801983541691151516179055565b518051600684019167ffffffffffffffff821161062e576104168354611209565b601f81116105e9575b50602090601f8311600114610582576007949392915f9183610577575b50508160011b915f199060031b1c19161790555b5191015580545f5260046020528360405f205582545f5260046020528360405f205580545f52600560205260405f20600160ff1982541617905582545f52600560205260405f20600160ff198254161790555491546040519283526020830152606060408301525f908054906104c582611209565b918260608601526001811690815f1461054757506001146104fb575b845f5160206115145f395f51905f5285850386a260015f55005b5f90815260208120939250905b80821061052c57509091508101608001815f5160206115145f395f51905f526104e1565b91926001816020925460808588010152019101909291610508565b859450608092505f5160206115145f395f51905f529593915060ff191682840152151560051b82010191926104e1565b015190508a8061043c565b90601f19831691845f52815f20925f5b8181106105d15750916001939185600798979694106105b9575b505050811b019055610450565b01515f1960f88460031b161c191690558a80806105ac565b92936020600181928786015181550195019301610592565b835f5260205f20601f840160051c81019160208510610624575b601f0160051c01905b818110610619575061041f565b5f815560010161060c565b9091508190610603565b634e487b7160e01b5f52604160045260245ffd5b5050865f528160205f205f905b8382106106665750506080610309928201016102f6565b6020919250806001915460808588010152019101839161064f565b6080925061030994915060ff191682840152801515028201016102f6565b60405162461bcd60e51b815260206004820152601060248201526f105b1c9958591e481858d8d95c1d195960821b6044820152606490fd5b6328a7237960e01b5f5260045ffd5b63635e873760e01b5f5260045ffd5b346101a95760203660031901126101a9576004355f52600260205260405f206040519061072182611241565b805482526107b66001820154916020840192835260028101546040850152600381015460608501526004810154936080810194855260ff6005830154169060a081019115158252600761077660068501611280565b938460c0840152015460e082015251935194519051151590604051958695865260208601526040850152606084015260a0608084015260a0830190611320565b0390f35b346101a9576101003660031901126101a95760043560443560243560a43567ffffffffffffffff81116101a9576107f590369060040161135a565b9060c43567ffffffffffffffff81116101a95761081690369060040161135a565b9060e43567ffffffffffffffff81116101a95761083790369060040161135a565b9290916108426114a4565b865f52600560205260ff60405f205416610b6557875f52600560205260ff60405f205416610b6557865f52600460205260405f2054610b5657875f52600460205260405f2054610b5657885f52600360205260405f2054610b11576108a89187916114c2565b15610b02576108b89186916114c2565b15610b02576040516108c981611241565b83815260066020820191868352604081016064358152606082019042825260808301608435815260a08401925f845260c08501925f845261090b368b8b611437565b9760e087019889528d5f52600360205260405f20965187555160018701555160028601555160038501555160048401556109586005840192511515839060ff801983541691151516179055565b51151561ff0082549160081b169061ff00191617905501905180519067ffffffffffffffff821161062e5761098d8354611209565b601f8111610abd575b50602090601f8311600114610a315792828694937fb44409114cd579122e118eecf0df8d63061cc10977904e83fe065b7021b236a099989693608098955f92610a26575b50508160011b915f199060031b1c19161790555b6040519586948552602085015260606040850152816060850152848401375f828201840152601f01601f19168101030190a260015f55005b015190508b806109da565b90601f19831691845f52815f20925f5b818110610aa55750937fb44409114cd579122e118eecf0df8d63061cc10977904e83fe065b7021b236a0999896938896936001938360809b9810610a8d575b505050811b0190556109ee565b01515f1960f88460031b161c191690558b8080610a80565b92936020600181928786015181550195019301610a41565b835f5260205f20601f840160051c81019160208510610af8575b601f0160051c01905b818110610aed5750610996565b5f8155600101610ae0565b9091508190610ad7565b63038faaa560e11b5f5260045ffd5b60405162461bcd60e51b815260206004820152601760248201527f50726f706f73616c20616c7265616479206578697374730000000000000000006044820152606490fd5b632442a34760e01b5f5260045ffd5b636569570160e11b5f5260045ffd5b346101a9575f3660031901126101a9576006546040516001600160a01b039091168152602090f35b346101a957610baa36611344565b610bb26114a4565b815f52600260205260405f20906005820180549160ff831615610c78578354928184141580610c6a575b610c5b5785947f9003fe85c349c640aec29df088cb84a3b3833422d99a90577d739bdd6c23889f9460209460019360ff191690555f52600484525f604081205501545f52600482525f6040812055604051908152a27fa2d0c615bf9ec2291b525816f43ed4fcee81518e3ae812e0bc6172f1233690905f80a260015f55005b63ea8e4eb560e01b5f5260045ffd5b508160018601541415610bdc565b639703e8bd60e01b5f5260045ffd5b346101a9575f3660031901126101a9576001546040516001600160a01b039091168152602090f35b346101a95760203660031901126101a9576004355f52600260205260405f208054600182015491610d3a6002820154916003810154600482015460ff600584015416916007610d0060068601611280565b9401549560405198899889526020890152604088015260608701526080860152151560a085015261010060c0850152610100840190611320565b9060e08301520390f35b346101a9575f3660031901126101a957610d5c61147d565b600180546001600160a01b031981169091555f906001600160a01b03167f8be0079c531659141344cd1fd0a4f28419497f9722a3daafe3b4186f6b6457e08280a3005b346101a95760603660031901126101a9576020610dc3604435602435600435611388565b6040519015158152f35b346101a9575f3660031901126101a957602060405160128152f35b346101a95760203660031901126101a9576004355f52600360205260405f2080546107b660018301549260ff6002820154916003810154600482015490610e36600660058501549401611280565b9460405198899889526020890152604088015260608701526080860152818116151560a086015260081c16151560c084015261010060e0840152610100830190611320565b346101a95760203660031901126101a9576004355f526005602052602060ff60405f2054166040519015158152f35b346101a95760a03660031901126101a957600435602435604435610ecc6114a4565b815f52600560205260ff60405f205416610b6557805f52600560205260ff60405f205416610b6557815f52600460205260405f2054610b5657805f52600460205260405f2054610b5657604051602081019084825242604082015260408152610f3660608261125e565b51902090604051610f4681611241565b838152602081019282845260408201936064358552610fe86060840160843581526080850142815260a086019160018352604098895195610f878b8861125e565b6007875266191959985d5b1d60ca1b602088015260c0890196875260e089019788528c5f5260026020528a5f2098518955516001890155516002880155516003870155516004860155511515600585019060ff801983541691151516179055565b518051600684019167ffffffffffffffff821161062e576110098354611209565b601f8111611157575b50602090601f83116001146110da57935f5160206115145f395f51905f52989693836060979460079460a09b985f926110cf575b50508160011b915f199060031b1c19161790555b51910155835f52600460205286825f2055805f52600460205286825f2055835f526005602052815f20600160ff19825416179055805f526005602052815f20600160ff19825416179055815193845260208401528201526007606082015266191959985d5b1d60ca1b6080820152a260015f55005b015190508d80611046565b90601f19831691845f52815f20925f5b81811061113f57508460079460a09b98945f5160206115145f395f51905f529d9b989460609b9860019510611127575b505050811b01905561105a565b01515f1960f88460031b161c191690558d808061111a565b929360206001819287860151815501950193016110ea565b835f5260205f20601f840160051c81019160208510611192575b601f0160051c01905b8181106111875750611012565b5f815560010161117a565b9091508190611171565b346101a95760203660031901126101a9576004356001600160a01b038116908190036101a95760207fa45d60f9a04c5d4fa0d11954a836395a6be6f5e6349f49e5a909f47b47556226916111ee61147d565b600680546001600160a01b03191682179055604051908152a1005b90600182811c92168015611237575b602083101461122357565b634e487b7160e01b5f52602260045260245ffd5b91607f1691611218565b610100810190811067ffffffffffffffff82111761062e57604052565b90601f8019910116810190811067ffffffffffffffff82111761062e57604052565b9060405191825f82549261129384611209565b80845293600181169081156112fe57506001146112ba575b506112b89250038361125e565b565b90505f9291925260205f20905f915b8183106112e25750509060206112b8928201015f6112ab565b60209193508060019154838589010152019101909184926112c9565b9050602092506112b894915060ff191682840152151560051b8201015f6112ab565b805180835260209291819084018484015e5f828201840152601f01601f1916010190565b60409060031901126101a9576004359060243590565b9181601f840112156101a95782359167ffffffffffffffff83116101a957602083818601950101116101a957565b9190915f52600260205260405f2090604051906113a482611241565b8254825260018301549160208101928352600284015460408201526003840154606082015260048401546080820152600760ff6005860154169460a0830195151586526113f360068201611280565b60c08401520154938460e0830152511561142e57518114159182611422575b505061141c571490565b50505f90565b51141590505f80611412565b50505050505f90565b92919267ffffffffffffffff821161062e5760405191611461601f8201601f19166020018461125e565b8294818452818301116101a9578281602093845f960137010152565b6001546001600160a01b0316330361149157565b63118cdaa760e01b5f523360045260245ffd5b60025f54146114b35760025f55565b633ee5aeb560e01b5f5260045ffd5b811561150c576114d3913691611437565b602081519101206040516020810191825268373ab63634b334b2b960b91b60408201526029815261150560498261125e565b5190201490565b5050505f9056fec7f48092b6742fb39130b9a6f4059de43925295e7dc801a500000db5433a14a4a264697066735822122026165a96490d1fe8454750bb5c56db9e6a7904292fab63f51cbae8122bbc057a64736f6c634300081c0033","linkReferences":{}},"methodIdentifiers":{"MINIMUM_AGE()":"1155b61f","acceptMarriage(bytes32,bytes32)":"cfb89de5","createMarriage(bytes32,bytes32,bytes32,bytes32,bytes32)":"1d2b1bea","createMarriageProposal(bytes32,bytes32,bytes32,bytes32,uint256,string,bytes,bytes)":"cd0f2440","getMarriage(bytes32)":"cd3cd505","getMarriageStatusByNullifier(bytes32)":"f7734d4e","getMinimumAge()":"34b5f8fb","isNullifierUsed(bytes32)":"22dc7b4c","marriages(bytes32)":"826f940e","nullifierToMarriage(bytes32)":"f3ed0c55","owner()":"8da5cb5b","proposals(bytes32)":"32ed5b12","renounceOwnership()":"715018a6","requestDivorce(bytes32,bytes32)":"c45db1bd","transferOwnership(address)":"f2fde38b","updateZKPassportVerifier(address)":"00e97b51","usedNullifiers(bytes32)":"206137aa","verifyMarriageCertificate(bytes32,bytes32,bytes32)":"45fa78e9","zkPassportVerifier()":"c4797ec5"},"id":27}